{
  "_format": "hh-sol-artifact-1",
  "contractName": "toadLottery",
  "sourceName": "contracts/ToadLottery.sol",
  "abi": [
    {
      "inputs": [
        {
          "internalType": "uint256",
          "name": "subscriptionId",
          "type": "uint256"
        },
        {
          "internalType": "address payable",
          "name": "_devAddress",
          "type": "address"
        }
      ],
      "stateMutability": "nonpayable",
      "type": "constructor"
    },
    {
      "inputs": [],
      "name": "Lottery__DuplicateEntry",
      "type": "error"
    },
    {
      "inputs": [],
      "name": "Lottery__InvalidEntry",
      "type": "error"
    },
    {
      "inputs": [],
      "name": "Lottery__InvalidState",
      "type": "error"
    },
    {
      "inputs": [],
      "name": "Lottery__MaxPlayersReached",
      "type": "error"
    },
    {
      "inputs": [],
      "name": "Lottery__NoRandomWords",
      "type": "error"
    },
    {
      "inputs": [],
      "name": "Lottery__NoWithdrawalAvailable",
      "type": "error"
    },
    {
      "inputs": [],
      "name": "Lottery__PrizesAlreadyDistributed",
      "type": "error"
    },
    {
      "inputs": [],
      "name": "Lottery__VRFRequestFailed",
      "type": "error"
    },
    {
      "inputs": [],
      "name": "Lottery__WinnersAlreadySelected",
      "type": "error"
    },
    {
      "inputs": [],
      "name": "Lottery__WinnersNotSelected",
      "type": "error"
    },
    {
      "inputs": [],
      "name": "Lottery__WithdrawalFailed",
      "type": "error"
    },
    {
      "inputs": [
        {
          "internalType": "address",
          "name": "have",
          "type": "address"
        },
        {
          "internalType": "address",
          "name": "want",
          "type": "address"
        }
      ],
      "name": "OnlyCoordinatorCanFulfill",
      "type": "error"
    },
    {
      "inputs": [
        {
          "internalType": "address",
          "name": "have",
          "type": "address"
        },
        {
          "internalType": "address",
          "name": "owner",
          "type": "address"
        },
        {
          "internalType": "address",
          "name": "coordinator",
          "type": "address"
        }
      ],
      "name": "OnlyOwnerOrCoordinator",
      "type": "error"
    },
    {
      "inputs": [],
      "name": "ZeroAddress",
      "type": "error"
    },
    {
      "anonymous": false,
      "inputs": [
        {
          "indexed": false,
          "internalType": "address",
          "name": "vrfCoordinator",
          "type": "address"
        }
      ],
      "name": "CoordinatorSet",
      "type": "event"
    },
    {
      "anonymous": false,
      "inputs": [
        {
          "indexed": true,
          "internalType": "address",
          "name": "player",
          "type": "address"
        }
      ],
      "name": "LotteryEnter",
      "type": "event"
    },
    {
      "anonymous": false,
      "inputs": [
        {
          "indexed": true,
          "internalType": "address",
          "name": "from",
          "type": "address"
        },
        {
          "indexed": true,
          "internalType": "address",
          "name": "to",
          "type": "address"
        }
      ],
      "name": "OwnershipTransferRequested",
      "type": "event"
    },
    {
      "anonymous": false,
      "inputs": [
        {
          "indexed": true,
          "internalType": "address",
          "name": "from",
          "type": "address"
        },
        {
          "indexed": true,
          "internalType": "address",
          "name": "to",
          "type": "address"
        }
      ],
      "name": "OwnershipTransferred",
      "type": "event"
    },
    {
      "anonymous": false,
      "inputs": [
        {
          "indexed": false,
          "internalType": "uint256",
          "name": "requestId",
          "type": "uint256"
        },
        {
          "indexed": false,
          "internalType": "uint256[]",
          "name": "randomWords",
          "type": "uint256[]"
        }
      ],
      "name": "RequestFulfilled",
      "type": "event"
    },
    {
      "anonymous": false,
      "inputs": [
        {
          "indexed": false,
          "internalType": "uint256",
          "name": "requestId",
          "type": "uint256"
        },
        {
          "indexed": false,
          "internalType": "uint32",
          "name": "numWords",
          "type": "uint32"
        }
      ],
      "name": "RequestSent",
      "type": "event"
    },
    {
      "anonymous": false,
      "inputs": [
        {
          "indexed": false,
          "internalType": "uint256",
          "name": "requestId",
          "type": "uint256"
        }
      ],
      "name": "RequestedRandomness",
      "type": "event"
    },
    {
      "anonymous": false,
      "inputs": [
        {
          "indexed": false,
          "internalType": "address payable[3]",
          "name": "winners",
          "type": "address[3]"
        },
        {
          "indexed": false,
          "internalType": "uint256[]",
          "name": "amounts",
          "type": "uint256[]"
        }
      ],
      "name": "WinnersSelected",
      "type": "event"
    },
    {
      "anonymous": false,
      "inputs": [
        {
          "indexed": true,
          "internalType": "address",
          "name": "recipient",
          "type": "address"
        },
        {
          "indexed": false,
          "internalType": "uint256",
          "name": "amount",
          "type": "uint256"
        }
      ],
      "name": "WithdrawalMade",
      "type": "event"
    },
    {
      "inputs": [],
      "name": "ENTRY_FEE",
      "outputs": [
        {
          "internalType": "uint256",
          "name": "",
          "type": "uint256"
        }
      ],
      "stateMutability": "view",
      "type": "function"
    },
    {
      "inputs": [],
      "name": "FINAL_PRIZE_POOL",
      "outputs": [
        {
          "internalType": "uint256",
          "name": "",
          "type": "uint256"
        }
      ],
      "stateMutability": "view",
      "type": "function"
    },
    {
      "inputs": [],
      "name": "MAXIMUM_PLAYERS",
      "outputs": [
        {
          "internalType": "uint256",
          "name": "",
          "type": "uint256"
        }
      ],
      "stateMutability": "view",
      "type": "function"
    },
    {
      "inputs": [],
      "name": "acceptOwnership",
      "outputs": [],
      "stateMutability": "nonpayable",
      "type": "function"
    },
    {
      "inputs": [],
      "name": "callbackGasLimit",
      "outputs": [
        {
          "internalType": "uint32",
          "name": "",
          "type": "uint32"
        }
      ],
      "stateMutability": "view",
      "type": "function"
    },
    {
      "inputs": [],
      "name": "devAddress",
      "outputs": [
        {
          "internalType": "address payable",
          "name": "",
          "type": "address"
        }
      ],
      "stateMutability": "view",
      "type": "function"
    },
    {
      "inputs": [],
      "name": "distributePrizes",
      "outputs": [],
      "stateMutability": "nonpayable",
      "type": "function"
    },
    {
      "inputs": [],
      "name": "enter",
      "outputs": [],
      "stateMutability": "payable",
      "type": "function"
    },
    {
      "inputs": [
        {
          "internalType": "uint256",
          "name": "",
          "type": "uint256"
        }
      ],
      "name": "fundingAddresses",
      "outputs": [
        {
          "internalType": "address payable",
          "name": "",
          "type": "address"
        }
      ],
      "stateMutability": "view",
      "type": "function"
    },
    {
      "inputs": [
        {
          "internalType": "address",
          "name": "player",
          "type": "address"
        }
      ],
      "name": "getPlayerStatus",
      "outputs": [
        {
          "internalType": "bool",
          "name": "participated",
          "type": "bool"
        },
        {
          "internalType": "bool",
          "name": "won",
          "type": "bool"
        },
        {
          "internalType": "uint256",
          "name": "pendingAmount",
          "type": "uint256"
        }
      ],
      "stateMutability": "view",
      "type": "function"
    },
    {
      "inputs": [],
      "name": "getPlayers",
      "outputs": [
        {
          "internalType": "address payable[]",
          "name": "",
          "type": "address[]"
        }
      ],
      "stateMutability": "view",
      "type": "function"
    },
    {
      "inputs": [],
      "name": "getRecentWinners",
      "outputs": [
        {
          "internalType": "address payable[3]",
          "name": "",
          "type": "address[3]"
        }
      ],
      "stateMutability": "view",
      "type": "function"
    },
    {
      "inputs": [
        {
          "internalType": "uint256",
          "name": "_requestId",
          "type": "uint256"
        }
      ],
      "name": "getRequestStatus",
      "outputs": [
        {
          "internalType": "bool",
          "name": "fulfilled",
          "type": "bool"
        },
        {
          "internalType": "uint256[]",
          "name": "randomWords",
          "type": "uint256[]"
        }
      ],
      "stateMutability": "view",
      "type": "function"
    },
    {
      "inputs": [],
      "name": "getWinningNumbers",
      "outputs": [
        {
          "internalType": "uint256[3]",
          "name": "",
          "type": "uint256[3]"
        }
      ],
      "stateMutability": "view",
      "type": "function"
    },
    {
      "inputs": [
        {
          "internalType": "address",
          "name": "",
          "type": "address"
        }
      ],
      "name": "hasParticipated",
      "outputs": [
        {
          "internalType": "bool",
          "name": "",
          "type": "bool"
        }
      ],
      "stateMutability": "view",
      "type": "function"
    },
    {
      "inputs": [],
      "name": "hasRandomNumbers",
      "outputs": [
        {
          "internalType": "bool",
          "name": "",
          "type": "bool"
        }
      ],
      "stateMutability": "view",
      "type": "function"
    },
    {
      "inputs": [
        {
          "internalType": "address",
          "name": "",
          "type": "address"
        }
      ],
      "name": "isWinner",
      "outputs": [
        {
          "internalType": "bool",
          "name": "",
          "type": "bool"
        }
      ],
      "stateMutability": "view",
      "type": "function"
    },
    {
      "inputs": [],
      "name": "keyHash",
      "outputs": [
        {
          "internalType": "bytes32",
          "name": "",
          "type": "bytes32"
        }
      ],
      "stateMutability": "view",
      "type": "function"
    },
    {
      "inputs": [],
      "name": "lastRequestId",
      "outputs": [
        {
          "internalType": "uint256",
          "name": "",
          "type": "uint256"
        }
      ],
      "stateMutability": "view",
      "type": "function"
    },
    {
      "inputs": [
        {
          "internalType": "uint256",
          "name": "",
          "type": "uint256"
        }
      ],
      "name": "latestRandomWords",
      "outputs": [
        {
          "internalType": "uint256",
          "name": "",
          "type": "uint256"
        }
      ],
      "stateMutability": "view",
      "type": "function"
    },
    {
      "inputs": [],
      "name": "lottery_state",
      "outputs": [
        {
          "internalType": "enum toadLottery.LOTTERY_STATE",
          "name": "",
          "type": "uint8"
        }
      ],
      "stateMutability": "view",
      "type": "function"
    },
    {
      "inputs": [],
      "name": "numWords",
      "outputs": [
        {
          "internalType": "uint32",
          "name": "",
          "type": "uint32"
        }
      ],
      "stateMutability": "view",
      "type": "function"
    },
    {
      "inputs": [],
      "name": "owner",
      "outputs": [
        {
          "internalType": "address",
          "name": "",
          "type": "address"
        }
      ],
      "stateMutability": "view",
      "type": "function"
    },
    {
      "inputs": [
        {
          "internalType": "address",
          "name": "",
          "type": "address"
        }
      ],
      "name": "pendingWithdrawals",
      "outputs": [
        {
          "internalType": "uint256",
          "name": "",
          "type": "uint256"
        }
      ],
      "stateMutability": "view",
      "type": "function"
    },
    {
      "inputs": [
        {
          "internalType": "uint256",
          "name": "",
          "type": "uint256"
        }
      ],
      "name": "players",
      "outputs": [
        {
          "internalType": "address payable",
          "name": "",
          "type": "address"
        }
      ],
      "stateMutability": "view",
      "type": "function"
    },
    {
      "inputs": [],
      "name": "prizesDistributed",
      "outputs": [
        {
          "internalType": "bool",
          "name": "",
          "type": "bool"
        }
      ],
      "stateMutability": "view",
      "type": "function"
    },
    {
      "inputs": [
        {
          "internalType": "uint256",
          "name": "requestId",
          "type": "uint256"
        },
        {
          "internalType": "uint256[]",
          "name": "randomWords",
          "type": "uint256[]"
        }
      ],
      "name": "rawFulfillRandomWords",
      "outputs": [],
      "stateMutability": "nonpayable",
      "type": "function"
    },
    {
      "inputs": [
        {
          "internalType": "uint256",
          "name": "",
          "type": "uint256"
        }
      ],
      "name": "recentWinners",
      "outputs": [
        {
          "internalType": "address payable",
          "name": "",
          "type": "address"
        }
      ],
      "stateMutability": "view",
      "type": "function"
    },
    {
      "inputs": [],
      "name": "requestConfirmations",
      "outputs": [
        {
          "internalType": "uint16",
          "name": "",
          "type": "uint16"
        }
      ],
      "stateMutability": "view",
      "type": "function"
    },
    {
      "inputs": [
        {
          "internalType": "uint256",
          "name": "",
          "type": "uint256"
        }
      ],
      "name": "requestIds",
      "outputs": [
        {
          "internalType": "uint256",
          "name": "",
          "type": "uint256"
        }
      ],
      "stateMutability": "view",
      "type": "function"
    },
    {
      "inputs": [],
      "name": "requestRandomWords",
      "outputs": [
        {
          "internalType": "uint256",
          "name": "requestId",
          "type": "uint256"
        }
      ],
      "stateMutability": "nonpayable",
      "type": "function"
    },
    {
      "inputs": [
        {
          "internalType": "uint256",
          "name": "",
          "type": "uint256"
        }
      ],
      "name": "s_requests",
      "outputs": [
        {
          "internalType": "bool",
          "name": "fulfilled",
          "type": "bool"
        },
        {
          "internalType": "bool",
          "name": "exists",
          "type": "bool"
        }
      ],
      "stateMutability": "view",
      "type": "function"
    },
    {
      "inputs": [],
      "name": "s_subscriptionId",
      "outputs": [
        {
          "internalType": "uint256",
          "name": "",
          "type": "uint256"
        }
      ],
      "stateMutability": "view",
      "type": "function"
    },
    {
      "inputs": [],
      "name": "s_vrfCoordinator",
      "outputs": [
        {
          "internalType": "contract IVRFCoordinatorV2Plus",
          "name": "",
          "type": "address"
        }
      ],
      "stateMutability": "view",
      "type": "function"
    },
    {
      "inputs": [],
      "name": "selectWinners",
      "outputs": [],
      "stateMutability": "nonpayable",
      "type": "function"
    },
    {
      "inputs": [
        {
          "internalType": "address",
          "name": "_vrfCoordinator",
          "type": "address"
        }
      ],
      "name": "setCoordinator",
      "outputs": [],
      "stateMutability": "nonpayable",
      "type": "function"
    },
    {
      "inputs": [],
      "name": "startNewRound",
      "outputs": [],
      "stateMutability": "nonpayable",
      "type": "function"
    },
    {
      "inputs": [
        {
          "internalType": "address",
          "name": "to",
          "type": "address"
        }
      ],
      "name": "transferOwnership",
      "outputs": [],
      "stateMutability": "nonpayable",
      "type": "function"
    },
    {
      "inputs": [],
      "name": "winnersSelected",
      "outputs": [
        {
          "internalType": "bool",
          "name": "",
          "type": "bool"
        }
      ],
      "stateMutability": "view",
      "type": "function"
    },
    {
      "inputs": [],
      "name": "withdraw",
      "outputs": [],
      "stateMutability": "nonpayable",
      "type": "function"
    }
  ],
  "bytecode": "0x60a06040527f8596b430971ac45bdf6088665b9ad8e8630c9d5049ab54b14dff711bee7c0e2660001b600855622625a0600960006101000a81548163ffffffff021916908363ffffffff1602179055506003600960046101000a81548161ffff021916908361ffff1602179055506003600960066101000a81548163ffffffff021916908363ffffffff16021790555034801561009b57600080fd5b506040516143db3803806143db83398181016040528101906100bd919061065c565b73da3b641d438362c440ac5458c57e00a712b66700338060008073ffffffffffffffffffffffffffffffffffffffff168273ffffffffffffffffffffffffffffffffffffffff1603610144576040517f08c379a000000000000000000000000000000000000000000000000000000000815260040161013b906106f9565b60405180910390fd5b816000806101000a81548173ffffffffffffffffffffffffffffffffffffffff021916908373ffffffffffffffffffffffffffffffffffffffff160217905550600073ffffffffffffffffffffffffffffffffffffffff168173ffffffffffffffffffffffffffffffffffffffff16146101c8576101c7816103fd60201b60201c565b5b505050600073ffffffffffffffffffffffffffffffffffffffff168173ffffffffffffffffffffffffffffffffffffffff1603610231576040517fd92e233d00000000000000000000000000000000000000000000000000000000815260040160405180910390fd5b80600260006101000a81548173ffffffffffffffffffffffffffffffffffffffff021916908373ffffffffffffffffffffffffffffffffffffffff160217905550506001600381905550600073ffffffffffffffffffffffffffffffffffffffff168173ffffffffffffffffffffffffffffffffffffffff16036102ea576040517f08c379a00000000000000000000000000000000000000000000000000000000081526004016102e190610765565b60405180910390fd5b604051806040016040528073cd71336769347f8a2b5db79d2606bef6bf36ee9373ffffffffffffffffffffffffffffffffffffffff1673ffffffffffffffffffffffffffffffffffffffff16815260200173adc5d469f631333bc3af98776614ac9bebd3faf973ffffffffffffffffffffffffffffffffffffffff1673ffffffffffffffffffffffffffffffffffffffff16815250600e90600261038f929190610529565b50816005819055506000601560006101000a81548160ff021916908360028111156103bd576103bc610785565b5b02179055508073ffffffffffffffffffffffffffffffffffffffff1660808173ffffffffffffffffffffffffffffffffffffffff16815250505050610820565b3373ffffffffffffffffffffffffffffffffffffffff168173ffffffffffffffffffffffffffffffffffffffff160361046b576040517f08c379a000000000000000000000000000000000000000000000000000000000815260040161046290610800565b60405180910390fd5b80600160006101000a81548173ffffffffffffffffffffffffffffffffffffffff021916908373ffffffffffffffffffffffffffffffffffffffff1602179055508073ffffffffffffffffffffffffffffffffffffffff1660008054906101000a900473ffffffffffffffffffffffffffffffffffffffff1673ffffffffffffffffffffffffffffffffffffffff167fed8889f560326eb138920d842192f0eb3dd22b4f139c87a2c57538e05bae127860405160405180910390a350565b8260028101928215610595579160200282015b828111156105945782518260006101000a81548173ffffffffffffffffffffffffffffffffffffffff021916908373ffffffffffffffffffffffffffffffffffffffff1602179055509160200191906001019061053c565b5b5090506105a291906105a6565b5090565b5b808211156105bf5760008160009055506001016105a7565b5090565b600080fd5b6000819050919050565b6105db816105c8565b81146105e657600080fd5b50565b6000815190506105f8816105d2565b92915050565b600073ffffffffffffffffffffffffffffffffffffffff82169050919050565b6000610629826105fe565b9050919050565b6106398161061e565b811461064457600080fd5b50565b60008151905061065681610630565b92915050565b60008060408385031215610673576106726105c3565b5b6000610681858286016105e9565b925050602061069285828601610647565b9150509250929050565b600082825260208201905092915050565b7f43616e6e6f7420736574206f776e657220746f207a65726f0000000000000000600082015250565b60006106e360188361069c565b91506106ee826106ad565b602082019050919050565b60006020820190508181036000830152610712816106d6565b9050919050565b7f496e76616c696420646576206164647265737300000000000000000000000000600082015250565b600061074f60138361069c565b915061075a82610719565b602082019050919050565b6000602082019050818103600083015261077e81610742565b9050919050565b7f4e487b7100000000000000000000000000000000000000000000000000000000600052602160045260246000fd5b7f43616e6e6f74207472616e7366657220746f2073656c66000000000000000000600082015250565b60006107ea60178361069c565b91506107f5826107b4565b602082019050919050565b60006020820190508181036000830152610819816107dd565b9050919050565b608051613b9961084260003960008181610b2301526123b80152613b996000f3fe60806040526004361061023b5760003560e01c80638b5b9ccc1161012e578063bd85948c116100ab578063f2fde38b1161006f578063f2fde38b1461083e578063f3f4370314610867578063f6d361cc146108a4578063f71d96cb146108cf578063fc2a88c31461090c5761023b565b8063bd85948c14610789578063d8a4676f146107a0578063e0c86289146107de578063e97dcb6214610809578063f077b974146108135761023b565b80639eccacf6116100f25780639eccacf61461067b578063a168fa89146106a6578063b0fb162f146106e4578063b3e022de1461070f578063b4fb3ee31461074c5761023b565b80638b5b9ccc146105945780638bc53285146105bf5780638da5cb5b146105ea5780638ea98117146106155780639d9ca28d1461063e5761023b565b80635cc050c4116101bc5780638144799911610180578063814479991461049957806384350e1d146104c45780638796ba8c146104ef5780638984d7691461052c5780638ac00021146105695761023b565b80635cc050c4146103ea57806361728f391461041557806379ba5097146104405780637ccfd7fc146104575780637ce52eb6146104825761023b565b80632777724b116102035780632777724b146103155780633ad10ef6146103405780633ccfd60b1461036b57806342f53c3f146103825780634d6a290b146103bf5761023b565b806306a9ba14146102405780630f45db911461026b5780631a0de74c146102aa5780631fe543e3146102c157806324f74697146102ea575b600080fd5b34801561024c57600080fd5b50610255610937565b6040516102629190612a95565b60405180910390f35b34801561027757600080fd5b50610292600480360381019061028d9190612b18565b61093c565b6040516102a193929190612b60565b60405180910390f35b3480156102b657600080fd5b506102bf610a28565b005b3480156102cd57600080fd5b506102e860048036038101906102e39190612c28565b610a32565b005b3480156102f657600080fd5b506102ff610af8565b60405161030c9190612ca7565b60405180910390f35b34801561032157600080fd5b5061032a610b0e565b6040516103379190612cc2565b60405180910390f35b34801561034c57600080fd5b50610355610b21565b6040516103629190612cfe565b60405180910390f35b34801561037757600080fd5b50610380610b45565b005b34801561038e57600080fd5b506103a960048036038101906103a49190612d19565b610d0d565b6040516103b69190612a95565b60405180910390f35b3480156103cb57600080fd5b506103d4610d31565b6040516103e19190612cc2565b60405180910390f35b3480156103f657600080fd5b506103ff610d59565b60405161040c9190612a95565b60405180910390f35b34801561042157600080fd5b5061042a610d70565b6040516104379190612d5f565b60405180910390f35b34801561044c57600080fd5b50610455610d76565b005b34801561046357600080fd5b5061046c610f0b565b6040516104799190612ca7565b60405180910390f35b34801561048e57600080fd5b50610497610f21565b005b3480156104a557600080fd5b506104ae610f2b565b6040516104bb9190612df1565b60405180910390f35b3480156104d057600080fd5b506104d9610f3e565b6040516104e69190612eb7565b60405180910390f35b3480156104fb57600080fd5b5061051660048036038101906105119190612d19565b61102c565b6040516105239190612a95565b60405180910390f35b34801561053857600080fd5b50610553600480360381019061054e9190612d19565b611050565b6040516105609190612cfe565b60405180910390f35b34801561057557600080fd5b5061057e611086565b60405161058b9190612a95565b60405180910390f35b3480156105a057600080fd5b506105a961108c565b6040516105b69190612f90565b60405180910390f35b3480156105cb57600080fd5b506105d461111a565b6040516105e19190612cc2565b60405180910390f35b3480156105f657600080fd5b506105ff61112d565b60405161060c9190612fc1565b60405180910390f35b34801561062157600080fd5b5061063c60048036038101906106379190612b18565b611156565b005b34801561064a57600080fd5b5061066560048036038101906106609190612b18565b611337565b6040516106729190612cc2565b60405180910390f35b34801561068757600080fd5b50610690611357565b60405161069d919061303b565b60405180910390f35b3480156106b257600080fd5b506106cd60048036038101906106c89190612d19565b61137d565b6040516106db929190613056565b60405180910390f35b3480156106f057600080fd5b506106f96113bb565b604051610706919061309c565b60405180910390f35b34801561071b57600080fd5b5061073660048036038101906107319190612d19565b6113cf565b6040516107439190612cfe565b60405180910390f35b34801561075857600080fd5b50610773600480360381019061076e9190612b18565b611405565b6040516107809190612cc2565b60405180910390f35b34801561079557600080fd5b5061079e611425565b005b3480156107ac57600080fd5b506107c760048036038101906107c29190612d19565b61142f565b6040516107d592919061314e565b60405180910390f35b3480156107ea57600080fd5b506107f361155a565b6040516108009190612a95565b60405180910390f35b6108116117e4565b005b34801561081f57600080fd5b50610828611ba6565b6040516108359190613202565b60405180910390f35b34801561084a57600080fd5b5061086560048036038101906108609190612b18565b611c27565b005b34801561087357600080fd5b5061088e60048036038101906108899190612b18565b611c3b565b60405161089b9190612a95565b60405180910390f35b3480156108b057600080fd5b506108b9611c53565b6040516108c69190612a95565b60405180910390f35b3480156108db57600080fd5b506108f660048036038101906108f19190612d19565b611c5e565b6040516109039190612cfe565b60405180910390f35b34801561091857600080fd5b50610921611c9d565b60405161092e9190612a95565b60405180910390f35b600481565b6000806000601460008573ffffffffffffffffffffffffffffffffffffffff1673ffffffffffffffffffffffffffffffffffffffff16815260200190815260200160002060009054906101000a900460ff16601360008673ffffffffffffffffffffffffffffffffffffffff1673ffffffffffffffffffffffffffffffffffffffff16815260200190815260200160002060009054906101000a900460ff16601260008773ffffffffffffffffffffffffffffffffffffffff1673ffffffffffffffffffffffffffffffffffffffff168152602001908152602001600020549250925092509193909250565b610a30611ca3565b565b600260009054906101000a900473ffffffffffffffffffffffffffffffffffffffff1673ffffffffffffffffffffffffffffffffffffffff163373ffffffffffffffffffffffffffffffffffffffff1614610ae85733600260009054906101000a900473ffffffffffffffffffffffffffffffffffffffff166040517f1cf993f4000000000000000000000000000000000000000000000000000000008152600401610adf92919061321d565b60405180910390fd5b610af3838383612019565b505050565b600960009054906101000a900463ffffffff1681565b601160019054906101000a900460ff1681565b7f000000000000000000000000000000000000000000000000000000000000000081565b610b4d612185565b6000601260003373ffffffffffffffffffffffffffffffffffffffff1673ffffffffffffffffffffffffffffffffffffffff16815260200190815260200160002054905060008103610bcb576040517f794afc1400000000000000000000000000000000000000000000000000000000815260040160405180910390fd5b6000601260003373ffffffffffffffffffffffffffffffffffffffff1673ffffffffffffffffffffffffffffffffffffffff1681526020019081526020016000208190555060003373ffffffffffffffffffffffffffffffffffffffff1682604051610c3690613277565b60006040518083038185875af1925050503d8060008114610c73576040519150601f19603f3d011682016040523d82523d6000602084013e610c78565b606091505b5050905080610cb3576040517f8188b9e200000000000000000000000000000000000000000000000000000000815260040160405180910390fd5b3373ffffffffffffffffffffffffffffffffffffffff167fbc158bb64f05d6383aea69bbb0b20c1bbf4b7a18f63359c5649b7c39e29d388483604051610cf99190612a95565b60405180910390a25050610d0b6121d4565b565b60108181548110610d1d57600080fd5b906000526020600020016000915090505481565b6000600960069054906101000a900463ffffffff1663ffffffff166010805490501015905090565b600466038d7ea4c68000610d6d91906132bb565b81565b60085481565b600160009054906101000a900473ffffffffffffffffffffffffffffffffffffffff1673ffffffffffffffffffffffffffffffffffffffff163373ffffffffffffffffffffffffffffffffffffffff1614610e06576040517f08c379a0000000000000000000000000000000000000000000000000000000008152600401610dfd9061335a565b60405180910390fd5b60008060009054906101000a900473ffffffffffffffffffffffffffffffffffffffff169050336000806101000a81548173ffffffffffffffffffffffffffffffffffffffff021916908373ffffffffffffffffffffffffffffffffffffffff1602179055506000600160006101000a81548173ffffffffffffffffffffffffffffffffffffffff021916908373ffffffffffffffffffffffffffffffffffffffff1602179055503373ffffffffffffffffffffffffffffffffffffffff168173ffffffffffffffffffffffffffffffffffffffff167f8be0079c531659141344cd1fd0a4f28419497f9722a3daafe3b4186f6b6457e060405160405180910390a350565b600960069054906101000a900463ffffffff1681565b610f296121de565b565b601560009054906101000a900460ff1681565b610f4661293f565b600960069054906101000a900463ffffffff1663ffffffff166010805490501015610fa6576040517f08c379a0000000000000000000000000000000000000000000000000000000008152600401610f9d906133c6565b60405180910390fd5b610fae61293f565b60005b600381108015610fc5575060108054905081105b1561102457601460108281548110610fe057610fdf6133e6565b5b9060005260206000200154610ff59190613444565b828260038110611008576110076133e6565b5b602002018181525050808061101c90613475565b915050610fb1565b508091505090565b6006818154811061103c57600080fd5b906000526020600020016000915090505481565b600e816002811061106057600080fd5b016000915054906101000a900473ffffffffffffffffffffffffffffffffffffffff1681565b60055481565b6060600a80548060200260200160405190810160405280929190818152602001828054801561111057602002820191906000526020600020905b8160009054906101000a900473ffffffffffffffffffffffffffffffffffffffff1673ffffffffffffffffffffffffffffffffffffffff16815260200190600101908083116110c6575b5050505050905090565b601160009054906101000a900460ff1681565b60008060009054906101000a900473ffffffffffffffffffffffffffffffffffffffff16905090565b61115e61112d565b73ffffffffffffffffffffffffffffffffffffffff163373ffffffffffffffffffffffffffffffffffffffff16141580156111e75750600260009054906101000a900473ffffffffffffffffffffffffffffffffffffffff1673ffffffffffffffffffffffffffffffffffffffff163373ffffffffffffffffffffffffffffffffffffffff1614155b1561125657336111f561112d565b600260009054906101000a900473ffffffffffffffffffffffffffffffffffffffff166040517f061db9c100000000000000000000000000000000000000000000000000000000815260040161124d939291906134bd565b60405180910390fd5b600073ffffffffffffffffffffffffffffffffffffffff168173ffffffffffffffffffffffffffffffffffffffff16036112bc576040517fd92e233d00000000000000000000000000000000000000000000000000000000815260040160405180910390fd5b80600260006101000a81548173ffffffffffffffffffffffffffffffffffffffff021916908373ffffffffffffffffffffffffffffffffffffffff1602179055507fd1a6a14209a385a964d036e404cb5cfb71f4000cdb03c9366292430787261be68160405161132c9190612fc1565b60405180910390a150565b60136020528060005260406000206000915054906101000a900460ff1681565b600260009054906101000a900473ffffffffffffffffffffffffffffffffffffffff1681565b60046020528060005260406000206000915090508060000160009054906101000a900460ff16908060000160019054906101000a900460ff16905082565b600960049054906101000a900461ffff1681565b600b81600381106113df57600080fd5b016000915054906101000a900473ffffffffffffffffffffffffffffffffffffffff1681565b60146020528060005260406000206000915054906101000a900460ff1681565b61142d612664565b565b600060606004600084815260200190815260200160002060000160019054906101000a900460ff16611496576040517f08c379a000000000000000000000000000000000000000000000000000000000815260040161148d90613540565b60405180910390fd5b6000600460008581526020019081526020016000206040518060600160405290816000820160009054906101000a900460ff161515151581526020016000820160019054906101000a900460ff161515151581526020016001820180548060200260200160405190810160405280929190818152602001828054801561153b57602002820191906000526020600020905b815481526020019060010190808311611527575b5050505050815250509050806000015181604001519250925050915091565b6000600260009054906101000a900473ffffffffffffffffffffffffffffffffffffffff1673ffffffffffffffffffffffffffffffffffffffff16639b1c385e6040518060c0016040528060085481526020016005548152602001600960049054906101000a900461ffff1661ffff168152602001600960009054906101000a900463ffffffff1663ffffffff168152602001600960069054906101000a900463ffffffff1663ffffffff1681526020016116256040518060200160405280600015158152506126eb565b8152506040518263ffffffff1660e01b815260040161164491906136a6565b6020604051808303816000875af1158015611663573d6000803e3d6000fd5b505050506040513d601f19601f8201168201806040525081019061168791906136dd565b90506040518060600160405280600015158152602001600115158152602001600067ffffffffffffffff8111156116c1576116c061370a565b5b6040519080825280602002602001820160405280156116ef5781602001602082028036833780820191505090505b508152506004600083815260200190815260200160002060008201518160000160006101000a81548160ff02191690831515021790555060208201518160000160016101000a81548160ff0219169083151502179055506040820151816001019080519060200190611762929190612961565b509050506006819080600181540180825580915050600190039060005260206000200160009091909190915055806007819055507fcc58b13ad3eab50626c6a6300b1d139cd6ebb1688a7cced9461c2f7e762665ee81600960069054906101000a900463ffffffff166040516117d9929190613739565b60405180910390a190565b6117ec612185565b66038d7ea4c68000341461182c576040517fc4672a9d00000000000000000000000000000000000000000000000000000000815260040160405180910390fd5b600060028111156118405761183f612d7a565b5b601560009054906101000a900460ff16600281111561186257611861612d7a565b5b14611899576040517f3d8a0f6c00000000000000000000000000000000000000000000000000000000815260040160405180910390fd5b6004600a80549050106118d8576040517f40a8bdf700000000000000000000000000000000000000000000000000000000815260040160405180910390fd5b60005b600a80549050811015611998573373ffffffffffffffffffffffffffffffffffffffff16600a8281548110611913576119126133e6565b5b9060005260206000200160009054906101000a900473ffffffffffffffffffffffffffffffffffffffff1673ffffffffffffffffffffffffffffffffffffffff160361198b576040517f2a11963600000000000000000000000000000000000000000000000000000000815260040160405180910390fd5b80806001019150506118db565b50600a339080600181540180825580915050600190039060005260206000200160009091909190916101000a81548173ffffffffffffffffffffffffffffffffffffffff021916908373ffffffffffffffffffffffffffffffffffffffff1602179055506001601460003373ffffffffffffffffffffffffffffffffffffffff1673ffffffffffffffffffffffffffffffffffffffff16815260200190815260200160002060006101000a81548160ff0219169083151502179055503373ffffffffffffffffffffffffffffffffffffffff167f1d64fb5ba9f2548c5b98468d58f25b87b9e866afee0122e92d9fe722bf85076c60405160405180910390a26004600a8054905003611b9c576002601560006101000a81548160ff02191690836002811115611aca57611ac9612d7a565b5b02179055503073ffffffffffffffffffffffffffffffffffffffff1663e0c862896040518163ffffffff1660e01b81526004016020604051808303816000875af1925050508015611b3957506040513d601f19601f82011682018060405250810190611b3691906136dd565b60015b611b9a576000601560006101000a81548160ff02191690836002811115611b6357611b62612d7a565b5b02179055506040517f537eddd800000000000000000000000000000000000000000000000000000000815260040160405180910390fd5b505b611ba46121d4565b565b611bae6129ae565b600b600380602002604051908101604052809291908260038015611c1d576020028201915b8160009054906101000a900473ffffffffffffffffffffffffffffffffffffffff1673ffffffffffffffffffffffffffffffffffffffff1681526020019060010190808311611bd3575b5050505050905090565b611c2f612783565b611c3881612813565b50565b60126020528060005260406000206000915090505481565b66038d7ea4c6800081565b600a8181548110611c6e57600080fd5b906000526020600020016000915054906101000a900473ffffffffffffffffffffffffffffffffffffffff1681565b60075481565b600960069054906101000a900463ffffffff1663ffffffff166010805490501015611cfa576040517f0da00b7600000000000000000000000000000000000000000000000000000000815260040160405180910390fd5b601160009054906101000a900460ff1615611d41576040517f031be43e00000000000000000000000000000000000000000000000000000000815260040160405180910390fd5b6004600a8054905014611d80576040517f3d8a0f6c00000000000000000000000000000000000000000000000000000000815260040160405180910390fd5b6000600467ffffffffffffffff811115611d9d57611d9c61370a565b5b604051908082528060200260200182016040528015611dcb5781602001602082028036833780820191505090505b50905060005b6003811015611f6f576000600460108381548110611df257611df16133e6565b5b9060005260206000200154611e079190613444565b90505b828181518110611e1d57611e1c6133e6565b5b602002602001015115611e4a576004600182611e399190613762565b611e439190613444565b9050611e0a565b6001838281518110611e5f57611e5e6133e6565b5b6020026020010190151590811515815250506000600a8281548110611e8757611e866133e6565b5b9060005260206000200160009054906101000a900473ffffffffffffffffffffffffffffffffffffffff16905080600b8460038110611ec957611ec86133e6565b5b0160006101000a81548173ffffffffffffffffffffffffffffffffffffffff021916908373ffffffffffffffffffffffffffffffffffffffff1602179055506001601360008373ffffffffffffffffffffffffffffffffffffffff1673ffffffffffffffffffffffffffffffffffffffff16815260200190815260200160002060006101000a81548160ff02191690831515021790555050508080600101915050611dd1565b506001601160006101000a81548160ff0219169083151502179055507fcf3ede91798f327f4e4b146d90f14157c4dba3543045f957100e8fb39ea963af600b600367ffffffffffffffff811115611fc957611fc861370a565b5b604051908082528060200260200182016040528015611ff75781602001602082028036833780820191505090505b50604051612006929190613870565b60405180910390a16120166121de565b50565b6004600084815260200190815260200160002060000160019054906101000a900460ff1661207c576040517f08c379a000000000000000000000000000000000000000000000000000000000815260040161207390613540565b60405180910390fd5b60016004600085815260200190815260200160002060000160006101000a81548160ff02191690831515021790555081816004600086815260200190815260200160002060010191906120d09291906129d0565b50601060006120df9190612a1d565b60005b8282905081101561213c576010838383818110612102576121016133e6565b5b90506020020135908060018154018082558091505060019003906000526020600020016000909190919091505580806001019150506120e2565b507ffe2e2d779dba245964d4e3ef9b994be63856fd568bf7d3ca9e224755cb1bd54d8383836040516121709392919061390a565b60405180910390a1612180611ca3565b505050565b6002600354036121ca576040517f08c379a00000000000000000000000000000000000000000000000000000000081526004016121c190613988565b60405180910390fd5b6002600381905550565b6001600381905550565b601160009054906101000a900460ff16612224576040517f693e92c700000000000000000000000000000000000000000000000000000000815260040160405180910390fd5b601160019054906101000a900460ff161561226b576040517fddd8154100000000000000000000000000000000000000000000000000000000815260040160405180910390fd5b60006064603c600466038d7ea4c6800061228591906132bb565b61228f91906132bb565b61229991906139a8565b905060006003826122aa91906139a8565b905060006064600a600466038d7ea4c680006122c691906132bb565b6122d091906132bb565b6122da91906139a8565b905060006064600a600466038d7ea4c680006122f691906132bb565b61230091906132bb565b61230a91906139a8565b905060005b60038110156123b0578360126000600b8460038110612331576123306133e6565b5b0160009054906101000a900473ffffffffffffffffffffffffffffffffffffffff1673ffffffffffffffffffffffffffffffffffffffff1673ffffffffffffffffffffffffffffffffffffffff168152602001908152602001600020600082825461239c9190613762565b92505081905550808060010191505061230f565b5081601260007f000000000000000000000000000000000000000000000000000000000000000073ffffffffffffffffffffffffffffffffffffffff1673ffffffffffffffffffffffffffffffffffffffff16815260200190815260200160002060008282546124209190613762565b925050819055508060126000600e600060028110612441576124406133e6565b5b0160009054906101000a900473ffffffffffffffffffffffffffffffffffffffff1673ffffffffffffffffffffffffffffffffffffffff1673ffffffffffffffffffffffffffffffffffffffff16815260200190815260200160002060008282546124ac9190613762565b925050819055508060126000600e6001600281106124cd576124cc6133e6565b5b0160009054906101000a900473ffffffffffffffffffffffffffffffffffffffff1673ffffffffffffffffffffffffffffffffffffffff1673ffffffffffffffffffffffffffffffffffffffff16815260200190815260200160002060008282546125389190613762565b925050819055506000600367ffffffffffffffff81111561255c5761255b61370a565b5b60405190808252806020026020018201604052801561258a5781602001602082028036833780820191505090505b50905060005b60038110156125c657848282815181106125ad576125ac6133e6565b5b6020026020010181815250508080600101915050612590565b507fcf3ede91798f327f4e4b146d90f14157c4dba3543045f957100e8fb39ea963af600b826040516125f9929190613870565b60405180910390a1600a600061260f9190612a3e565b6001601160016101000a81548160ff0219169083151502179055506000601560006101000a81548160ff021916908360028111156126505761264f612d7a565b5b021790555061265d612664565b5050505050565b601160019054906101000a900460ff166126b3576040517f08c379a00000000000000000000000000000000000000000000000000000000081526004016126aa90613a25565b60405180910390fd5b6000601160006101000a81548160ff0219169083151502179055506000601160016101000a81548160ff021916908315150217905550565b60607f92fd13387c7fe7befbc38d303d6468778fb9731bc4583f17d92989c6fcfdeaaa8260405160240161271f9190613a70565b604051602081830303815290604052907bffffffffffffffffffffffffffffffffffffffffffffffffffffffff19166020820180517bffffffffffffffffffffffffffffffffffffffffffffffffffffffff83818316178352505050509050919050565b60008054906101000a900473ffffffffffffffffffffffffffffffffffffffff1673ffffffffffffffffffffffffffffffffffffffff163373ffffffffffffffffffffffffffffffffffffffff1614612811576040517f08c379a000000000000000000000000000000000000000000000000000000000815260040161280890613ad7565b60405180910390fd5b565b3373ffffffffffffffffffffffffffffffffffffffff168173ffffffffffffffffffffffffffffffffffffffff1603612881576040517f08c379a000000000000000000000000000000000000000000000000000000000815260040161287890613b43565b60405180910390fd5b80600160006101000a81548173ffffffffffffffffffffffffffffffffffffffff021916908373ffffffffffffffffffffffffffffffffffffffff1602179055508073ffffffffffffffffffffffffffffffffffffffff1660008054906101000a900473ffffffffffffffffffffffffffffffffffffffff1673ffffffffffffffffffffffffffffffffffffffff167fed8889f560326eb138920d842192f0eb3dd22b4f139c87a2c57538e05bae127860405160405180910390a350565b6040518060600160405280600390602082028036833780820191505090505090565b82805482825590600052602060002090810192821561299d579160200282015b8281111561299c578251825591602001919060010190612981565b5b5090506129aa9190612a5f565b5090565b6040518060600160405280600390602082028036833780820191505090505090565b828054828255906000526020600020908101928215612a0c579160200282015b82811115612a0b5782358255916020019190600101906129f0565b5b509050612a199190612a5f565b5090565b5080546000825590600052602060002090810190612a3b9190612a5f565b50565b5080546000825590600052602060002090810190612a5c9190612a5f565b50565b5b80821115612a78576000816000905550600101612a60565b5090565b6000819050919050565b612a8f81612a7c565b82525050565b6000602082019050612aaa6000830184612a86565b92915050565b600080fd5b600080fd5b600073ffffffffffffffffffffffffffffffffffffffff82169050919050565b6000612ae582612aba565b9050919050565b612af581612ada565b8114612b0057600080fd5b50565b600081359050612b1281612aec565b92915050565b600060208284031215612b2e57612b2d612ab0565b5b6000612b3c84828501612b03565b91505092915050565b60008115159050919050565b612b5a81612b45565b82525050565b6000606082019050612b756000830186612b51565b612b826020830185612b51565b612b8f6040830184612a86565b949350505050565b612ba081612a7c565b8114612bab57600080fd5b50565b600081359050612bbd81612b97565b92915050565b600080fd5b600080fd5b600080fd5b60008083601f840112612be857612be7612bc3565b5b8235905067ffffffffffffffff811115612c0557612c04612bc8565b5b602083019150836020820283011115612c2157612c20612bcd565b5b9250929050565b600080600060408486031215612c4157612c40612ab0565b5b6000612c4f86828701612bae565b935050602084013567ffffffffffffffff811115612c7057612c6f612ab5565b5b612c7c86828701612bd2565b92509250509250925092565b600063ffffffff82169050919050565b612ca181612c88565b82525050565b6000602082019050612cbc6000830184612c98565b92915050565b6000602082019050612cd76000830184612b51565b92915050565b6000612ce882612aba565b9050919050565b612cf881612cdd565b82525050565b6000602082019050612d136000830184612cef565b92915050565b600060208284031215612d2f57612d2e612ab0565b5b6000612d3d84828501612bae565b91505092915050565b6000819050919050565b612d5981612d46565b82525050565b6000602082019050612d746000830184612d50565b92915050565b7f4e487b7100000000000000000000000000000000000000000000000000000000600052602160045260246000fd5b60038110612dba57612db9612d7a565b5b50565b6000819050612dcb82612da9565b919050565b6000612ddb82612dbd565b9050919050565b612deb81612dd0565b82525050565b6000602082019050612e066000830184612de2565b92915050565b600060039050919050565b600081905092915050565b6000819050919050565b612e3581612a7c565b82525050565b6000612e478383612e2c565b60208301905092915050565b6000602082019050919050565b612e6981612e0c565b612e738184612e17565b9250612e7e82612e22565b8060005b83811015612eaf578151612e968782612e3b565b9650612ea183612e53565b925050600181019050612e82565b505050505050565b6000606082019050612ecc6000830184612e60565b92915050565b600081519050919050565b600082825260208201905092915050565b6000819050602082019050919050565b612f0781612cdd565b82525050565b6000612f198383612efe565b60208301905092915050565b6000602082019050919050565b6000612f3d82612ed2565b612f478185612edd565b9350612f5283612eee565b8060005b83811015612f83578151612f6a8882612f0d565b9750612f7583612f25565b925050600181019050612f56565b5085935050505092915050565b60006020820190508181036000830152612faa8184612f32565b905092915050565b612fbb81612ada565b82525050565b6000602082019050612fd66000830184612fb2565b92915050565b6000819050919050565b6000613001612ffc612ff784612aba565b612fdc565b612aba565b9050919050565b600061301382612fe6565b9050919050565b600061302582613008565b9050919050565b6130358161301a565b82525050565b6000602082019050613050600083018461302c565b92915050565b600060408201905061306b6000830185612b51565b6130786020830184612b51565b9392505050565b600061ffff82169050919050565b6130968161307f565b82525050565b60006020820190506130b1600083018461308d565b92915050565b600081519050919050565b600082825260208201905092915050565b6000819050602082019050919050565b6000602082019050919050565b60006130fb826130b7565b61310581856130c2565b9350613110836130d3565b8060005b838110156131415781516131288882612e3b565b9750613133836130e3565b925050600181019050613114565b5085935050505092915050565b60006040820190506131636000830185612b51565b818103602083015261317581846130f0565b90509392505050565b600060039050919050565b600081905092915050565b6000819050919050565b6000602082019050919050565b6131b48161317e565b6131be8184613189565b92506131c982613194565b8060005b838110156131fa5781516131e18782612f0d565b96506131ec8361319e565b9250506001810190506131cd565b505050505050565b600060608201905061321760008301846131ab565b92915050565b60006040820190506132326000830185612fb2565b61323f6020830184612fb2565b9392505050565b600081905092915050565b50565b6000613261600083613246565b915061326c82613251565b600082019050919050565b600061328282613254565b9150819050919050565b7f4e487b7100000000000000000000000000000000000000000000000000000000600052601160045260246000fd5b60006132c682612a7c565b91506132d183612a7c565b92508282026132df81612a7c565b915082820484148315176132f6576132f561328c565b5b5092915050565b600082825260208201905092915050565b7f4d7573742062652070726f706f736564206f776e657200000000000000000000600082015250565b60006133446016836132fd565b915061334f8261330e565b602082019050919050565b6000602082019050818103600083015261337381613337565b9050919050565b7f52616e646f6d206e756d62657273206e6f742079657420617661696c61626c65600082015250565b60006133b06020836132fd565b91506133bb8261337a565b602082019050919050565b600060208201905081810360008301526133df816133a3565b9050919050565b7f4e487b7100000000000000000000000000000000000000000000000000000000600052603260045260246000fd5b7f4e487b7100000000000000000000000000000000000000000000000000000000600052601260045260246000fd5b600061344f82612a7c565b915061345a83612a7c565b92508261346a57613469613415565b5b828206905092915050565b600061348082612a7c565b91507fffffffffffffffffffffffffffffffffffffffffffffffffffffffffffffffff82036134b2576134b161328c565b5b600182019050919050565b60006060820190506134d26000830186612fb2565b6134df6020830185612fb2565b6134ec6040830184612fb2565b949350505050565b7f72657175657374206e6f7420666f756e64000000000000000000000000000000600082015250565b600061352a6011836132fd565b9150613535826134f4565b602082019050919050565b600060208201905081810360008301526135598161351d565b9050919050565b61356981612d46565b82525050565b6135788161307f565b82525050565b61358781612c88565b82525050565b600081519050919050565b600082825260208201905092915050565b60005b838110156135c75780820151818401526020810190506135ac565b60008484015250505050565b6000601f19601f8301169050919050565b60006135ef8261358d565b6135f98185613598565b93506136098185602086016135a9565b613612816135d3565b840191505092915050565b600060c0830160008301516136356000860182613560565b5060208301516136486020860182612e2c565b50604083015161365b604086018261356f565b50606083015161366e606086018261357e565b506080830151613681608086018261357e565b5060a083015184820360a086015261369982826135e4565b9150508091505092915050565b600060208201905081810360008301526136c0818461361d565b905092915050565b6000815190506136d781612b97565b92915050565b6000602082840312156136f3576136f2612ab0565b5b6000613701848285016136c8565b91505092915050565b7f4e487b7100000000000000000000000000000000000000000000000000000000600052604160045260246000fd5b600060408201905061374e6000830185612a86565b61375b6020830184612c98565b9392505050565b600061376d82612a7c565b915061377883612a7c565b92508282019050808211156137905761378f61328c565b5b92915050565b600060039050919050565b6000819050919050565b60008160001c9050919050565b600073ffffffffffffffffffffffffffffffffffffffff82169050919050565b60006137eb6137e6836137ab565b6137b8565b9050919050565b60006137fe82546137d8565b9050919050565b6000600182019050919050565b61381b81613796565b6138258184613189565b9250613830826137a1565b8060005b8381101561386857613845826137f2565b61384f8782612f0d565b965061385a83613805565b925050600181019050613834565b505050505050565b60006080820190506138856000830185613812565b818103606083015261389781846130f0565b90509392505050565b600080fd5b82818337505050565b60006138ba83856130c2565b93507f07ffffffffffffffffffffffffffffffffffffffffffffffffffffffffffffff8311156138ed576138ec6138a0565b5b6020830292506138fe8385846138a5565b82840190509392505050565b600060408201905061391f6000830186612a86565b81810360208301526139328184866138ae565b9050949350505050565b7f5265656e7472616e637947756172643a207265656e7472616e742063616c6c00600082015250565b6000613972601f836132fd565b915061397d8261393c565b602082019050919050565b600060208201905081810360008301526139a181613965565b9050919050565b60006139b382612a7c565b91506139be83612a7c565b9250826139ce576139cd613415565b5b828204905092915050565b7f50726576696f757320726f756e64206e6f7420636f6d706c6574650000000000600082015250565b6000613a0f601b836132fd565b9150613a1a826139d9565b602082019050919050565b60006020820190508181036000830152613a3e81613a02565b9050919050565b613a4e81612b45565b82525050565b602082016000820151613a6a6000850182613a45565b50505050565b6000602082019050613a856000830184613a54565b92915050565b7f4f6e6c792063616c6c61626c65206279206f776e657200000000000000000000600082015250565b6000613ac16016836132fd565b9150613acc82613a8b565b602082019050919050565b60006020820190508181036000830152613af081613ab4565b9050919050565b7f43616e6e6f74207472616e7366657220746f2073656c66000000000000000000600082015250565b6000613b2d6017836132fd565b9150613b3882613af7565b602082019050919050565b60006020820190508181036000830152613b5c81613b20565b905091905056fea26469706673582212209b6cc138b5e4bdea1a957084a50deb38484d07732aa4f262aa5a31cd06e4681864736f6c634300081c0033",
  "linkReferences": {},
  "deployedLinkReferences": {}
}